{
  "contractName": "TokenRequestGroup",
  "abi": [
    {
      "inputs": [
        {
          "internalType": "address[]",
          "name": "initialMembers",
          "type": "address[]"
        }
      ],
      "stateMutability": "nonpayable",
      "type": "constructor"
    },
    {
      "anonymous": false,
      "inputs": [
        {
          "indexed": true,
          "internalType": "address",
          "name": "newMember",
          "type": "address"
        }
      ],
      "name": "MemberAdded",
      "type": "event"
    },
    {
      "anonymous": false,
      "inputs": [
        {
          "indexed": true,
          "internalType": "address",
          "name": "removedMember",
          "type": "address"
        }
      ],
      "name": "MemberRemoved",
      "type": "event"
    },
    {
      "anonymous": false,
      "inputs": [
        {
          "indexed": true,
          "internalType": "address",
          "name": "member",
          "type": "address"
        },
        {
          "indexed": false,
          "internalType": "bool",
          "name": "isAddition",
          "type": "bool"
        }
      ],
      "name": "MembershipRequestAccepted",
      "type": "event"
    },
    {
      "anonymous": false,
      "inputs": [
        {
          "indexed": true,
          "internalType": "address",
          "name": "approver",
          "type": "address"
        },
        {
          "indexed": false,
          "internalType": "uint256",
          "name": "requestIndex",
          "type": "uint256"
        }
      ],
      "name": "MembershipRequestApproved",
      "type": "event"
    },
    {
      "anonymous": false,
      "inputs": [
        {
          "indexed": true,
          "internalType": "address",
          "name": "member",
          "type": "address"
        },
        {
          "indexed": false,
          "internalType": "bool",
          "name": "isAddition",
          "type": "bool"
        }
      ],
      "name": "MembershipRequestCreated",
      "type": "event"
    },
    {
      "anonymous": false,
      "inputs": [
        {
          "indexed": true,
          "internalType": "address",
          "name": "recipient",
          "type": "address"
        },
        {
          "indexed": false,
          "internalType": "uint256",
          "name": "requestIndex",
          "type": "uint256"
        }
      ],
      "name": "RequestAccepted",
      "type": "event"
    },
    {
      "anonymous": false,
      "inputs": [
        {
          "indexed": true,
          "internalType": "address",
          "name": "approver",
          "type": "address"
        },
        {
          "indexed": true,
          "internalType": "address",
          "name": "recipient",
          "type": "address"
        },
        {
          "indexed": false,
          "internalType": "uint256",
          "name": "requestIndex",
          "type": "uint256"
        }
      ],
      "name": "RequestApproved",
      "type": "event"
    },
    {
      "anonymous": false,
      "inputs": [
        {
          "indexed": true,
          "internalType": "address",
          "name": "requester",
          "type": "address"
        },
        {
          "indexed": true,
          "internalType": "address",
          "name": "tokenAddress",
          "type": "address"
        },
        {
          "indexed": false,
          "internalType": "uint256",
          "name": "amount",
          "type": "uint256"
        },
        {
          "indexed": true,
          "internalType": "address",
          "name": "recipient",
          "type": "address"
        }
      ],
      "name": "RequestCreated",
      "type": "event"
    },
    {
      "inputs": [
        {
          "internalType": "uint256",
          "name": "",
          "type": "uint256"
        }
      ],
      "name": "membershipRequests",
      "outputs": [
        {
          "internalType": "address",
          "name": "member",
          "type": "address"
        },
        {
          "internalType": "uint256",
          "name": "approvals",
          "type": "uint256"
        },
        {
          "internalType": "bool",
          "name": "accepted",
          "type": "bool"
        },
        {
          "internalType": "bool",
          "name": "isAddition",
          "type": "bool"
        }
      ],
      "stateMutability": "view",
      "type": "function"
    },
    {
      "inputs": [
        {
          "internalType": "address",
          "name": "",
          "type": "address"
        },
        {
          "internalType": "uint256",
          "name": "",
          "type": "uint256"
        }
      ],
      "name": "requests",
      "outputs": [
        {
          "internalType": "address",
          "name": "requester",
          "type": "address"
        },
        {
          "internalType": "address",
          "name": "tokenAddress",
          "type": "address"
        },
        {
          "internalType": "uint256",
          "name": "amount",
          "type": "uint256"
        },
        {
          "internalType": "uint256",
          "name": "approvals",
          "type": "uint256"
        },
        {
          "internalType": "bool",
          "name": "accepted",
          "type": "bool"
        }
      ],
      "stateMutability": "view",
      "type": "function"
    },
    {
      "inputs": [
        {
          "internalType": "address",
          "name": "member",
          "type": "address"
        },
        {
          "internalType": "bool",
          "name": "isAddition",
          "type": "bool"
        }
      ],
      "name": "createMembershipRequest",
      "outputs": [],
      "stateMutability": "nonpayable",
      "type": "function"
    },
    {
      "inputs": [
        {
          "internalType": "uint256",
          "name": "requestIndex",
          "type": "uint256"
        }
      ],
      "name": "approveMembershipRequest",
      "outputs": [],
      "stateMutability": "nonpayable",
      "type": "function"
    },
    {
      "inputs": [
        {
          "internalType": "address",
          "name": "recipient",
          "type": "address"
        },
        {
          "internalType": "address",
          "name": "tokenAddress",
          "type": "address"
        },
        {
          "internalType": "uint256",
          "name": "amount",
          "type": "uint256"
        }
      ],
      "name": "createRequest",
      "outputs": [],
      "stateMutability": "nonpayable",
      "type": "function"
    },
    {
      "inputs": [
        {
          "internalType": "address",
          "name": "recipient",
          "type": "address"
        },
        {
          "internalType": "uint256",
          "name": "requestIndex",
          "type": "uint256"
        }
      ],
      "name": "approveRequest",
      "outputs": [],
      "stateMutability": "nonpayable",
      "type": "function"
    },
    {
      "inputs": [
        {
          "internalType": "address",
          "name": "recipient",
          "type": "address"
        }
      ],
      "name": "getRequests",
      "outputs": [
        {
          "components": [
            {
              "internalType": "address",
              "name": "requester",
              "type": "address"
            },
            {
              "internalType": "address",
              "name": "tokenAddress",
              "type": "address"
            },
            {
              "internalType": "uint256",
              "name": "amount",
              "type": "uint256"
            },
            {
              "internalType": "uint256",
              "name": "approvals",
              "type": "uint256"
            },
            {
              "internalType": "bool",
              "name": "accepted",
              "type": "bool"
            }
          ],
          "internalType": "struct TokenRequestGroup.Request[]",
          "name": "",
          "type": "tuple[]"
        }
      ],
      "stateMutability": "view",
      "type": "function"
    },
    {
      "inputs": [],
      "name": "getGroupMembers",
      "outputs": [
        {
          "internalType": "address[]",
          "name": "",
          "type": "address[]"
        }
      ],
      "stateMutability": "view",
      "type": "function"
    },
    {
      "inputs": [],
      "name": "getMembershipRequests",
      "outputs": [
        {
          "components": [
            {
              "internalType": "address",
              "name": "member",
              "type": "address"
            },
            {
              "internalType": "uint256",
              "name": "approvals",
              "type": "uint256"
            },
            {
              "internalType": "bool",
              "name": "accepted",
              "type": "bool"
            },
            {
              "internalType": "bool",
              "name": "isAddition",
              "type": "bool"
            }
          ],
          "internalType": "struct TokenRequestGroup.MembershipRequest[]",
          "name": "",
          "type": "tuple[]"
        }
      ],
      "stateMutability": "view",
      "type": "function"
    }
  ],
  "bytecode": "0x60806040523480156200001157600080fd5b50604051620025d2380380620025d283398181016040528101906200003791906200034a565b60005b8151811015620001545760016000018282815181106200005f576200005e6200039b565b5b60200260200101519080600181540180825580915050600190039060005260206000200160009091909190916101000a81548173ffffffffffffffffffffffffffffffffffffffff021916908373ffffffffffffffffffffffffffffffffffffffff1602179055506001806001016000848481518110620000e557620000e46200039b565b5b602002602001015173ffffffffffffffffffffffffffffffffffffffff1673ffffffffffffffffffffffffffffffffffffffff16815260200190815260200160002060006101000a81548160ff02191690831515021790555080806200014b9062000403565b9150506200003a565b505062000450565b6000604051905090565b600080fd5b600080fd5b600080fd5b6000601f19601f8301169050919050565b7f4e487b7100000000000000000000000000000000000000000000000000000000600052604160045260246000fd5b620001c08262000175565b810181811067ffffffffffffffff82111715620001e257620001e162000186565b5b80604052505050565b6000620001f76200015c565b9050620002058282620001b5565b919050565b600067ffffffffffffffff82111562000228576200022762000186565b5b602082029050602081019050919050565b600080fd5b600073ffffffffffffffffffffffffffffffffffffffff82169050919050565b60006200026b826200023e565b9050919050565b6200027d816200025e565b81146200028957600080fd5b50565b6000815190506200029d8162000272565b92915050565b6000620002ba620002b4846200020a565b620001eb565b90508083825260208201905060208402830185811115620002e057620002df62000239565b5b835b818110156200030d5780620002f888826200028c565b845260208401935050602081019050620002e2565b5050509392505050565b600082601f8301126200032f576200032e62000170565b5b815162000341848260208601620002a3565b91505092915050565b60006020828403121562000363576200036262000166565b5b600082015167ffffffffffffffff8111156200038457620003836200016b565b5b620003928482850162000317565b91505092915050565b7f4e487b7100000000000000000000000000000000000000000000000000000000600052603260045260246000fd5b7f4e487b7100000000000000000000000000000000000000000000000000000000600052601160045260246000fd5b6000819050919050565b60006200041082620003f9565b91507fffffffffffffffffffffffffffffffffffffffffffffffffffffffffffffffff8203620004455762000444620003ca565b5b600182019050919050565b61217280620004606000396000f3fe608060405234801561001057600080fd5b50600436106100935760003560e01c8063804e44f311610066578063804e44f3146101235780639ecebe2a14610153578063b0addede14610187578063e7875502146101a3578063f24c6f31146101bf57610093565b80632b159746146100985780633693564b146100b657806337256522146100d45780633e3328e214610107575b600080fd5b6100a06101db565b6040516100ad91906117ea565b60405180910390f35b6100be6102d0565b6040516100cb91906118bb565b60405180910390f35b6100ee60048036038101906100e9919061190e565b610361565b6040516100fe9493929190611968565b60405180910390f35b610121600480360381019061011c91906119d9565b6103db565b005b61013d60048036038101906101389190611a19565b6107d0565b60405161014a9190611b5d565b60405180910390f35b61016d600480360381019061016891906119d9565b610948565b60405161017e959493929190611b7f565b60405180910390f35b6101a1600480360381019061019c9190611bd2565b6109e8565b005b6101bd60048036038101906101b89190611c51565b610d07565b005b6101d960048036038101906101d4919061190e565b61100b565b005b60606003805480602002602001604051908101604052809291908181526020016000905b828210156102c757838290600052602060002090600302016040518060800160405290816000820160009054906101000a900473ffffffffffffffffffffffffffffffffffffffff1673ffffffffffffffffffffffffffffffffffffffff1673ffffffffffffffffffffffffffffffffffffffff168152602001600182015481526020016002820160009054906101000a900460ff161515151581526020016002820160019054906101000a900460ff161515151581525050815260200190600101906101ff565b50505050905090565b6060600160000180548060200260200160405190810160405280929190818152602001828054801561035757602002820191906000526020600020905b8160009054906101000a900473ffffffffffffffffffffffffffffffffffffffff1673ffffffffffffffffffffffffffffffffffffffff168152602001906001019080831161030d575b5050505050905090565b6003818154811061037157600080fd5b90600052602060002090600302016000915090508060000160009054906101000a900473ffffffffffffffffffffffffffffffffffffffff16908060010154908060020160009054906101000a900460ff16908060020160019054906101000a900460ff16905084565b6001800160003373ffffffffffffffffffffffffffffffffffffffff1673ffffffffffffffffffffffffffffffffffffffff16815260200190815260200160002060009054906101000a900460ff16610469576040517f08c379a000000000000000000000000000000000000000000000000000000000815260040161046090611cee565b60405180910390fd5b60008060008473ffffffffffffffffffffffffffffffffffffffff1673ffffffffffffffffffffffffffffffffffffffff16815260200190815260200160002082815481106104bb576104ba611d0e565b5b906000526020600020906005020190508060040160009054906101000a900460ff161561051d576040517f08c379a000000000000000000000000000000000000000000000000000000000815260040161051490611d89565b60405180910390fd5b8060000160009054906101000a900473ffffffffffffffffffffffffffffffffffffffff1673ffffffffffffffffffffffffffffffffffffffff163373ffffffffffffffffffffffffffffffffffffffff16036105af576040517f08c379a00000000000000000000000000000000000000000000000000000000081526004016105a690611e1b565b60405180910390fd5b60018160030160008282546105c49190611e6a565b925050819055508273ffffffffffffffffffffffffffffffffffffffff163373ffffffffffffffffffffffffffffffffffffffff167fd9a9c1b40a747e79bd4c1aeabd897bfd5b3679e58fcdcd20dd7af4a8274196bc846040516106289190611e9e565b60405180910390a3600180600001805490506106449190611eb9565b8160030154106107cb5760018160040160006101000a81548160ff02191690831515021790555060008160010160009054906101000a900473ffffffffffffffffffffffffffffffffffffffff1690508073ffffffffffffffffffffffffffffffffffffffff166323b872dd858460000160009054906101000a900473ffffffffffffffffffffffffffffffffffffffff1685600201546040518463ffffffff1660e01b81526004016106f993929190611eed565b6020604051808303816000875af1158015610718573d6000803e3d6000fd5b505050506040513d601f19601f8201168201806040525081019061073c9190611f39565b61077b576040517f08c379a000000000000000000000000000000000000000000000000000000000815260040161077290611fb2565b60405180910390fd5b8373ffffffffffffffffffffffffffffffffffffffff167fd15c62656fdef5691874d8c5576446ca90f57120a5a41e75d1cb4fb28c37cef5846040516107c19190611e9e565b60405180910390a2505b505050565b60606000808373ffffffffffffffffffffffffffffffffffffffff1673ffffffffffffffffffffffffffffffffffffffff168152602001908152602001600020805480602002602001604051908101604052809291908181526020016000905b8282101561093d57838290600052602060002090600502016040518060a00160405290816000820160009054906101000a900473ffffffffffffffffffffffffffffffffffffffff1673ffffffffffffffffffffffffffffffffffffffff1673ffffffffffffffffffffffffffffffffffffffff1681526020016001820160009054906101000a900473ffffffffffffffffffffffffffffffffffffffff1673ffffffffffffffffffffffffffffffffffffffff1673ffffffffffffffffffffffffffffffffffffffff16815260200160028201548152602001600382015481526020016004820160009054906101000a900460ff16151515158152505081526020019060010190610830565b505050509050919050565b6000602052816000526040600020818154811061096457600080fd5b9060005260206000209060050201600091509150508060000160009054906101000a900473ffffffffffffffffffffffffffffffffffffffff16908060010160009054906101000a900473ffffffffffffffffffffffffffffffffffffffff16908060020154908060030154908060040160009054906101000a900460ff16905085565b6001800160003373ffffffffffffffffffffffffffffffffffffffff1673ffffffffffffffffffffffffffffffffffffffff16815260200190815260200160002060009054906101000a900460ff16610a76576040517f08c379a0000000000000000000000000000000000000000000000000000000008152600401610a6d90611cee565b60405180910390fd5b6001800160008473ffffffffffffffffffffffffffffffffffffffff1673ffffffffffffffffffffffffffffffffffffffff16815260200190815260200160002060009054906101000a900460ff16610b04576040517f08c379a0000000000000000000000000000000000000000000000000000000008152600401610afb9061201e565b60405180910390fd5b6000808473ffffffffffffffffffffffffffffffffffffffff1673ffffffffffffffffffffffffffffffffffffffff1681526020019081526020016000206040518060a001604052803373ffffffffffffffffffffffffffffffffffffffff1681526020018473ffffffffffffffffffffffffffffffffffffffff1681526020018381526020016000815260200160001515815250908060018154018082558091505060019003906000526020600020906005020160009091909190915060008201518160000160006101000a81548173ffffffffffffffffffffffffffffffffffffffff021916908373ffffffffffffffffffffffffffffffffffffffff16021790555060208201518160010160006101000a81548173ffffffffffffffffffffffffffffffffffffffff021916908373ffffffffffffffffffffffffffffffffffffffff160217905550604082015181600201556060820151816003015560808201518160040160006101000a81548160ff02191690831515021790555050508273ffffffffffffffffffffffffffffffffffffffff168273ffffffffffffffffffffffffffffffffffffffff163373ffffffffffffffffffffffffffffffffffffffff167f9248b083a4d3e727ead0462138bd6a9e14c3bf1353301269fad4304d6589996384604051610cfa9190611e9e565b60405180910390a4505050565b6001800160003373ffffffffffffffffffffffffffffffffffffffff1673ffffffffffffffffffffffffffffffffffffffff16815260200190815260200160002060009054906101000a900460ff16610d95576040517f08c379a0000000000000000000000000000000000000000000000000000000008152600401610d8c90611cee565b60405180910390fd5b8015610e2f576001800160008373ffffffffffffffffffffffffffffffffffffffff1673ffffffffffffffffffffffffffffffffffffffff16815260200190815260200160002060009054906101000a900460ff1615610e2a576040517f08c379a0000000000000000000000000000000000000000000000000000000008152600401610e219061208a565b60405180910390fd5b610ebe565b6001800160008373ffffffffffffffffffffffffffffffffffffffff1673ffffffffffffffffffffffffffffffffffffffff16815260200190815260200160002060009054906101000a900460ff16610ebd576040517f08c379a0000000000000000000000000000000000000000000000000000000008152600401610eb490611cee565b60405180910390fd5b5b600360405180608001604052808473ffffffffffffffffffffffffffffffffffffffff16815260200160008152602001600015158152602001831515815250908060018154018082558091505060019003906000526020600020906003020160009091909190915060008201518160000160006101000a81548173ffffffffffffffffffffffffffffffffffffffff021916908373ffffffffffffffffffffffffffffffffffffffff1602179055506020820151816001015560408201518160020160006101000a81548160ff02191690831515021790555060608201518160020160016101000a81548160ff02191690831515021790555050508173ffffffffffffffffffffffffffffffffffffffff167f8dbe0e183f919414c7cc3eb481d16d6c36b84a47463954e69a9e78e0f6d4515f82604051610fff91906120aa565b60405180910390a25050565b6001800160003373ffffffffffffffffffffffffffffffffffffffff1673ffffffffffffffffffffffffffffffffffffffff16815260200190815260200160002060009054906101000a900460ff16611099576040517f08c379a000000000000000000000000000000000000000000000000000000000815260040161109090611cee565b60405180910390fd5b6000600382815481106110af576110ae611d0e565b5b906000526020600020906003020190508060020160009054906101000a900460ff1615611111576040517f08c379a000000000000000000000000000000000000000000000000000000000815260040161110890611d89565b60405180910390fd5b60018160010160008282546111269190611e6a565b925050819055503373ffffffffffffffffffffffffffffffffffffffff167f459f85f78113b68e1a4820b65867809c287ae1f03aa29e4eaad91e93f05852f3836040516111739190611e9e565b60405180910390a26001806000018054905061118f9190611eb9565b81600101541061166d5760018160020160006101000a81548160ff0219169083151502179055508060020160019054906101000a900460ff16156113415760016000018160000160009054906101000a900473ffffffffffffffffffffffffffffffffffffffff169080600181540180825580915050600190039060005260206000200160009091909190916101000a81548173ffffffffffffffffffffffffffffffffffffffff021916908373ffffffffffffffffffffffffffffffffffffffff16021790555060018060010160008360000160009054906101000a900473ffffffffffffffffffffffffffffffffffffffff1673ffffffffffffffffffffffffffffffffffffffff1673ffffffffffffffffffffffffffffffffffffffff16815260200190815260200160002060006101000a81548160ff0219169083151502179055508060000160009054906101000a900473ffffffffffffffffffffffffffffffffffffffff1673ffffffffffffffffffffffffffffffffffffffff167fb251eb052afc73ffd02ffe85ad79990a8b3fed60d76dbc2fa2fdd7123dffd91460405160405180910390a26115e9565b60006001800160008360000160009054906101000a900473ffffffffffffffffffffffffffffffffffffffff1673ffffffffffffffffffffffffffffffffffffffff1673ffffffffffffffffffffffffffffffffffffffff16815260200190815260200160002060006101000a81548160ff02191690831515021790555060005b600160000180549050811015611580578160000160009054906101000a900473ffffffffffffffffffffffffffffffffffffffff1673ffffffffffffffffffffffffffffffffffffffff166001600001828154811061142457611423611d0e565b5b9060005260206000200160009054906101000a900473ffffffffffffffffffffffffffffffffffffffff1673ffffffffffffffffffffffffffffffffffffffff160361156d576001600001600180600001805490506114839190611eb9565b8154811061149457611493611d0e565b5b9060005260206000200160009054906101000a900473ffffffffffffffffffffffffffffffffffffffff16600160000182815481106114d6576114d5611d0e565b5b9060005260206000200160006101000a81548173ffffffffffffffffffffffffffffffffffffffff021916908373ffffffffffffffffffffffffffffffffffffffff1602179055506001600001805480611533576115326120c5565b5b6001900381819060005260206000200160006101000a81549073ffffffffffffffffffffffffffffffffffffffff02191690559055611580565b8080611578906120f4565b9150506113c2565b508060000160009054906101000a900473ffffffffffffffffffffffffffffffffffffffff1673ffffffffffffffffffffffffffffffffffffffff167f6e76fb4c77256006d9c38ec7d82b45a8c8f3c27b1d6766fffc42dfb8de68449260405160405180910390a25b8060000160009054906101000a900473ffffffffffffffffffffffffffffffffffffffff1673ffffffffffffffffffffffffffffffffffffffff167f931f1fb74803166abe24bbf93108f502dfb4a169e7a970ce1c0e2b1d88a109ee8260020160019054906101000a900460ff1660405161166491906120aa565b60405180910390a25b5050565b600081519050919050565b600082825260208201905092915050565b6000819050602082019050919050565b600073ffffffffffffffffffffffffffffffffffffffff82169050919050565b60006116c88261169d565b9050919050565b6116d8816116bd565b82525050565b6000819050919050565b6116f1816116de565b82525050565b60008115159050919050565b61170c816116f7565b82525050565b60808201600082015161172860008501826116cf565b50602082015161173b60208501826116e8565b50604082015161174e6040850182611703565b5060608201516117616060850182611703565b50505050565b60006117738383611712565b60808301905092915050565b6000602082019050919050565b600061179782611671565b6117a1818561167c565b93506117ac8361168d565b8060005b838110156117dd5781516117c48882611767565b97506117cf8361177f565b9250506001810190506117b0565b5085935050505092915050565b60006020820190508181036000830152611804818461178c565b905092915050565b600081519050919050565b600082825260208201905092915050565b6000819050602082019050919050565b600061184483836116cf565b60208301905092915050565b6000602082019050919050565b60006118688261180c565b6118728185611817565b935061187d83611828565b8060005b838110156118ae5781516118958882611838565b97506118a083611850565b925050600181019050611881565b5085935050505092915050565b600060208201905081810360008301526118d5818461185d565b905092915050565b600080fd5b6118eb816116de565b81146118f657600080fd5b50565b600081359050611908816118e2565b92915050565b600060208284031215611924576119236118dd565b5b6000611932848285016118f9565b91505092915050565b611944816116bd565b82525050565b611953816116de565b82525050565b611962816116f7565b82525050565b600060808201905061197d600083018761193b565b61198a602083018661194a565b6119976040830185611959565b6119a46060830184611959565b95945050505050565b6119b6816116bd565b81146119c157600080fd5b50565b6000813590506119d3816119ad565b92915050565b600080604083850312156119f0576119ef6118dd565b5b60006119fe858286016119c4565b9250506020611a0f858286016118f9565b9150509250929050565b600060208284031215611a2f57611a2e6118dd565b5b6000611a3d848285016119c4565b91505092915050565b600081519050919050565b600082825260208201905092915050565b6000819050602082019050919050565b60a082016000820151611a8860008501826116cf565b506020820151611a9b60208501826116cf565b506040820151611aae60408501826116e8565b506060820151611ac160608501826116e8565b506080820151611ad46080850182611703565b50505050565b6000611ae68383611a72565b60a08301905092915050565b6000602082019050919050565b6000611b0a82611a46565b611b148185611a51565b9350611b1f83611a62565b8060005b83811015611b50578151611b378882611ada565b9750611b4283611af2565b925050600181019050611b23565b5085935050505092915050565b60006020820190508181036000830152611b778184611aff565b905092915050565b600060a082019050611b94600083018861193b565b611ba1602083018761193b565b611bae604083018661194a565b611bbb606083018561194a565b611bc86080830184611959565b9695505050505050565b600080600060608486031215611beb57611bea6118dd565b5b6000611bf9868287016119c4565b9350506020611c0a868287016119c4565b9250506040611c1b868287016118f9565b9150509250925092565b611c2e816116f7565b8114611c3957600080fd5b50565b600081359050611c4b81611c25565b92915050565b60008060408385031215611c6857611c676118dd565b5b6000611c76858286016119c4565b9250506020611c8785828601611c3c565b9150509250929050565b600082825260208201905092915050565b7f4e6f7420612067726f7570206d656d6265720000000000000000000000000000600082015250565b6000611cd8601283611c91565b9150611ce382611ca2565b602082019050919050565b60006020820190508181036000830152611d0781611ccb565b9050919050565b7f4e487b7100000000000000000000000000000000000000000000000000000000600052603260045260246000fd5b7f5265717565737420616c72656164792061636365707465640000000000000000600082015250565b6000611d73601883611c91565b9150611d7e82611d3d565b602082019050919050565b60006020820190508181036000830152611da281611d66565b9050919050565b7f5265717565737465722063616e6e6f7420617070726f7665207468656972206f60008201527f776e207265717565737400000000000000000000000000000000000000000000602082015250565b6000611e05602a83611c91565b9150611e1082611da9565b604082019050919050565b60006020820190508181036000830152611e3481611df8565b9050919050565b7f4e487b7100000000000000000000000000000000000000000000000000000000600052601160045260246000fd5b6000611e75826116de565b9150611e80836116de565b9250828201905080821115611e9857611e97611e3b565b5b92915050565b6000602082019050611eb3600083018461194a565b92915050565b6000611ec4826116de565b9150611ecf836116de565b9250828203905081811115611ee757611ee6611e3b565b5b92915050565b6000606082019050611f02600083018661193b565b611f0f602083018561193b565b611f1c604083018461194a565b949350505050565b600081519050611f3381611c25565b92915050565b600060208284031215611f4f57611f4e6118dd565b5b6000611f5d84828501611f24565b91505092915050565b7f546f6b656e207472616e73666572206661696c65640000000000000000000000600082015250565b6000611f9c601583611c91565b9150611fa782611f66565b602082019050919050565b60006020820190508181036000830152611fcb81611f8f565b9050919050565b7f526563697069656e74206973206e6f7420612067726f7570206d656d62657200600082015250565b6000612008601f83611c91565b915061201382611fd2565b602082019050919050565b6000602082019050818103600083015261203781611ffb565b9050919050565b7f416c726561647920612067726f7570206d656d62657200000000000000000000600082015250565b6000612074601683611c91565b915061207f8261203e565b602082019050919050565b600060208201905081810360008301526120a381612067565b9050919050565b60006020820190506120bf6000830184611959565b92915050565b7f4e487b7100000000000000000000000000000000000000000000000000000000600052603160045260246000fd5b60006120ff826116de565b91507fffffffffffffffffffffffffffffffffffffffffffffffffffffffffffffffff820361213157612130611e3b565b5b60018201905091905056fea26469706673582212208e0991350ca2b92ef0fe7528d293d9a01ba415ee76e01adb872fbfe4c22b5cd064736f6c63430008130033",
  "immutableReferences": {},
  "source": "// SPDX-License-Identifier: MIT\r\npragma solidity ^0.8.0;\r\n\r\ncontract TokenRequestGroup {\r\n    struct Request {\r\n        address requester;\r\n        address tokenAddress;\r\n        uint256 amount;\r\n        uint256 approvals;\r\n        bool accepted;\r\n    }\r\n\r\n    struct Group {\r\n        address[] members;\r\n        mapping(address => bool) isMember;\r\n    }\r\n\r\n    struct MembershipRequest {\r\n        address member;\r\n        uint256 approvals;\r\n        bool accepted;\r\n        bool isAddition; // true for addition, false for removal\r\n    }\r\n\r\n    mapping(address => Request[]) public requests;\r\n    Group private group;\r\n    MembershipRequest[] public membershipRequests;\r\n\r\n    event RequestCreated(address indexed requester, address indexed tokenAddress, uint256 amount, address indexed recipient);\r\n    event RequestApproved(address indexed approver, address indexed recipient, uint256 requestIndex);\r\n    event RequestAccepted(address indexed recipient, uint256 requestIndex);\r\n    event MemberAdded(address indexed newMember);\r\n    event MemberRemoved(address indexed removedMember);\r\n    event MembershipRequestCreated(address indexed member, bool isAddition);\r\n    event MembershipRequestApproved(address indexed approver, uint256 requestIndex);\r\n    event MembershipRequestAccepted(address indexed member, bool isAddition);\r\n\r\n    modifier onlyGroupMember() {\r\n        require(group.isMember[msg.sender], \"Not a group member\");\r\n        _;\r\n    }\r\n\r\n    constructor(address[] memory initialMembers) {\r\n        for (uint256 i = 0; i < initialMembers.length; i++) {\r\n            group.members.push(initialMembers[i]);\r\n            group.isMember[initialMembers[i]] = true;\r\n        }\r\n    }\r\n\r\n    function createMembershipRequest(address member, bool isAddition) public onlyGroupMember {\r\n        if (isAddition) {\r\n            require(!group.isMember[member], \"Already a group member\");\r\n        } else {\r\n            require(group.isMember[member], \"Not a group member\");\r\n        }\r\n        membershipRequests.push(MembershipRequest({\r\n            member: member,\r\n            approvals: 0,\r\n            accepted: false,\r\n            isAddition: isAddition\r\n        }));\r\n        emit MembershipRequestCreated(member, isAddition);\r\n    }\r\n\r\n    function approveMembershipRequest(uint256 requestIndex) public onlyGroupMember {\r\n        MembershipRequest storage request = membershipRequests[requestIndex];\r\n        require(!request.accepted, \"Request already accepted\");\r\n\r\n        request.approvals += 1;\r\n        emit MembershipRequestApproved(msg.sender, requestIndex);\r\n\r\n        if (request.approvals >= group.members.length - 1) {\r\n            request.accepted = true;\r\n            if (request.isAddition) {\r\n                group.members.push(request.member);\r\n                group.isMember[request.member] = true;\r\n                emit MemberAdded(request.member);\r\n            } else {\r\n                group.isMember[request.member] = false;\r\n                for (uint256 i = 0; i < group.members.length; i++) {\r\n                    if (group.members[i] == request.member) {\r\n                        group.members[i] = group.members[group.members.length - 1];\r\n                        group.members.pop();\r\n                        break;\r\n                    }\r\n                }\r\n                emit MemberRemoved(request.member);\r\n            }\r\n            emit MembershipRequestAccepted(request.member, request.isAddition);\r\n        }\r\n    }\r\n\r\n    function createRequest(address recipient, address tokenAddress, uint256 amount) public onlyGroupMember {\r\n        require(group.isMember[recipient], \"Recipient is not a group member\");\r\n        requests[recipient].push(Request({\r\n            requester: msg.sender,\r\n            tokenAddress: tokenAddress,\r\n            amount: amount,\r\n            approvals: 0,\r\n            accepted: false\r\n        }));\r\n        emit RequestCreated(msg.sender, tokenAddress, amount, recipient);\r\n    }\r\n\r\n    function approveRequest(address recipient, uint256 requestIndex) public onlyGroupMember {\r\n        Request storage request = requests[recipient][requestIndex];\r\n        require(!request.accepted, \"Request already accepted\");\r\n        require(msg.sender != request.requester, \"Requester cannot approve their own request\");\r\n\r\n        request.approvals += 1;\r\n        emit RequestApproved(msg.sender, recipient, requestIndex);\r\n\r\n        if (request.approvals >= group.members.length - 1) {\r\n            request.accepted = true;\r\n            IERC20 token = IERC20(request.tokenAddress);\r\n            require(token.transferFrom(recipient, request.requester, request.amount), \"Token transfer failed\");\r\n            emit RequestAccepted(recipient, requestIndex);\r\n        }\r\n    }\r\n\r\n    function getRequests(address recipient) public view returns (Request[] memory) {\r\n        return requests[recipient];\r\n    }\r\n\r\n    function getGroupMembers() public view returns (address[] memory) {\r\n        return group.members;\r\n    }\r\n\r\n    function getMembershipRequests() public view returns (MembershipRequest[] memory) {\r\n        return membershipRequests;\r\n    }\r\n}\r\n\r\ninterface IERC20 {\r\n    function transferFrom(address sender, address recipient, uint256 amount) external returns (bool);\r\n}\r\n",
  "sourcePath": "E:\\Workinton-gag-hackathon-units\\contracts\\sharemetokengroup.sol",
  "compiler": {
    "name": "solc",
    "version": "0.8.19+commit.7dd6d404.Emscripten.clang"
  },
  "schemaVersion": "3.4.13",
  "updatedAt": "2025-02-21T08:58:44.233Z",
  "devdoc": {
    "kind": "dev",
    "methods": {},
    "version": 1
  },
  "userdoc": {
    "kind": "user",
    "methods": {},
    "version": 1
  }
}